20131380101201908090809115642001003MONTANO TORRES                MARTHA MAGALY                 100004270647319830628FSJR   BUENOS AIRES                  000310                                                                  000110505                                                       00051920200997615086fgalvans@bn.com.pe            000000000MRE - SUBS ADM                20131380101                                   000000                                                                  000150101LIMA                                                   0000000000400000000002AV   28 DE JULIO 932 Y P TROUARS   000113                                                                  000010101                                                       60431530927STD3ND000000000000002240000000000T     1
20131380101201908090809115642001002SERRANO VERGARA               JUAN RAMON                    100004156792119820823MSCALLEENRIQUE BARRON                001125301                                                               000140101                                                       00045266310999633500DVEGAL@BN.COM.PE              000000000MRE - SUBS ADM                20131380101                                   000000                                                                  000150101LIMA                                                   0000000000400000000002AV   28 DE JULIO 932 Y P TROUARS   000113                                                                  000010101                                                       60431531013STD3ND000000000000002240000000000T     1
20131380101201908090809115642001001AQUINO BARDALES               MIGUEL ANGEL                  100004011153519921008MS                                   000000                                                                  000090901                                                       00099999990999633500dvegal@bn.com.pe              000000000MRE - SUBS ADM                20131380101                                   000000                                                                  000150101LIMA                                                   0000000000400000000002AV   28 DE JULIO 932 Y P TROUARS   000113                                                                  000010101                                                       60431530927STD3ND000000000000002240000000000T     2
